{
  "_format": "hh-sol-artifact-1",
  "contractName": "UniswapV3Swap",
  "sourceName": "contracts/univ3Swap.sol",
  "abi": [
    {
      "inputs": [
        {
          "internalType": "contract ISwapRouter",
          "name": "_swapRouter",
          "type": "address"
        }
      ],
      "stateMutability": "nonpayable",
      "type": "constructor"
    },
    {
      "inputs": [],
      "name": "poolFee",
      "outputs": [
        {
          "internalType": "uint24",
          "name": "",
          "type": "uint24"
        }
      ],
      "stateMutability": "view",
      "type": "function"
    },
    {
      "inputs": [],
      "name": "swapRouter",
      "outputs": [
        {
          "internalType": "contract ISwapRouter",
          "name": "",
          "type": "address"
        }
      ],
      "stateMutability": "view",
      "type": "function"
    },
    {
      "inputs": [
        {
          "internalType": "address",
          "name": "tokenIn",
          "type": "address"
        },
        {
          "internalType": "address",
          "name": "tokenOut",
          "type": "address"
        },
        {
          "internalType": "uint256",
          "name": "amountIn",
          "type": "uint256"
        }
      ],
      "name": "swapTokenMax",
      "outputs": [
        {
          "internalType": "uint256",
          "name": "amountOut",
          "type": "uint256"
        }
      ],
      "stateMutability": "nonpayable",
      "type": "function"
    }
  ],
  "bytecode": "0x60a060405234801561001057600080fd5b50604051610ab3380380610ab383398181016040528101906100329190610084565b8073ffffffffffffffffffffffffffffffffffffffff1660808173ffffffffffffffffffffffffffffffffffffffff1660601b8152505050610108565b60008151905061007e816100f1565b92915050565b60006020828403121561009657600080fd5b60006100a48482850161006f565b91505092915050565b60006100b8826100d1565b9050919050565b60006100ca826100ad565b9050919050565b600073ffffffffffffffffffffffffffffffffffffffff82169050919050565b6100fa816100bf565b811461010557600080fd5b50565b60805160601c61098661012d6000398060ba528060f0528061011752506109866000f3fe608060405234801561001057600080fd5b50600436106100415760003560e01c8063089fe6aa14610046578063c31c9c0714610064578063f17e8dc814610082575b600080fd5b61004e6100b2565b60405161005b919061087d565b60405180910390f35b61006c6100b8565b6040516100799190610846565b60405180910390f35b61009c600480360381019061009791906106c3565b6100dc565b6040516100a99190610898565b60405180910390f35b610bb881565b7f000000000000000000000000000000000000000000000000000000000000000081565b60006100ea84333085610263565b610115847f000000000000000000000000000000000000000000000000000000000000000084610483565b7f000000000000000000000000000000000000000000000000000000000000000073ffffffffffffffffffffffffffffffffffffffff1663414bf3896040518061010001604052808773ffffffffffffffffffffffffffffffffffffffff1681526020018673ffffffffffffffffffffffffffffffffffffffff168152602001610bb862ffffff1681526020013373ffffffffffffffffffffffffffffffffffffffff16815260200142815260200185815260200160008152602001600073ffffffffffffffffffffffffffffffffffffffff168152506040518263ffffffff1660e01b81526004016102089190610861565b602060405180830381600087803b15801561022257600080fd5b505af1158015610236573d6000803e3d6000fd5b505050506040513d601f19601f8201168201806040525081019061025a9190610712565b90509392505050565b6000808573ffffffffffffffffffffffffffffffffffffffff166323b872dd60e01b868686604051602401808473ffffffffffffffffffffffffffffffffffffffff1681526020018373ffffffffffffffffffffffffffffffffffffffff1681526020018281526020019350505050604051602081830303815290604052907bffffffffffffffffffffffffffffffffffffffffffffffffffffffff19166020820180517bffffffffffffffffffffffffffffffffffffffffffffffffffffffff83818316178352505050506040518082805190602001908083835b60208310610362578051825260208201915060208101905060208303925061033f565b6001836020036101000a0380198251168184511680821785525050505050509050019150506000604051808303816000865af19150503d80600081146103c4576040519150601f19603f3d011682016040523d82523d6000602084013e6103c9565b606091505b5091509150818015610409575060008151148061040857508080602001905160208110156103f657600080fd5b81019080805190602001909291905050505b5b61047b576040517f08c379a00000000000000000000000000000000000000000000000000000000081526004018080602001828103825260038152602001807f535446000000000000000000000000000000000000000000000000000000000081525060200191505060405180910390fd5b505050505050565b6000808473ffffffffffffffffffffffffffffffffffffffff1663095ea7b360e01b8585604051602401808373ffffffffffffffffffffffffffffffffffffffff16815260200182815260200192505050604051602081830303815290604052907bffffffffffffffffffffffffffffffffffffffffffffffffffffffff19166020820180517bffffffffffffffffffffffffffffffffffffffffffffffffffffffff83818316178352505050506040518082805190602001908083835b602083106105645780518252602082019150602081019050602083039250610541565b6001836020036101000a0380198251168184511680821785525050505050509050019150506000604051808303816000865af19150503d80600081146105c6576040519150601f19603f3d011682016040523d82523d6000602084013e6105cb565b606091505b509150915081801561060b575060008151148061060a57508080602001905160208110156105f857600080fd5b81019080805190602001909291905050505b5b61067d576040517f08c379a00000000000000000000000000000000000000000000000000000000081526004018080602001828103825260028152602001807f534100000000000000000000000000000000000000000000000000000000000081525060200191505060405180910390fd5b5050505050565b60008135905061069381610922565b92915050565b6000813590506106a881610939565b92915050565b6000815190506106bd81610939565b92915050565b6000806000606084860312156106d857600080fd5b60006106e686828701610684565b93505060206106f786828701610684565b925050604061070886828701610699565b9150509250925092565b60006020828403121561072457600080fd5b6000610732848285016106ae565b91505092915050565b610744816108b3565b82525050565b610753816108fe565b82525050565b61010082016000820151610770600085018261073b565b506020820151610783602085018261073b565b506040820151610796604085018261080a565b5060608201516107a9606085018261073b565b5060808201516107bc6080850182610828565b5060a08201516107cf60a0850182610828565b5060c08201516107e260c0850182610828565b5060e08201516107f560e08501826107fb565b50505050565b610804816108c5565b82525050565b610813816108e5565b82525050565b610822816108e5565b82525050565b610831816108f4565b82525050565b610840816108f4565b82525050565b600060208201905061085b600083018461074a565b92915050565b6000610100820190506108776000830184610759565b92915050565b60006020820190506108926000830184610819565b92915050565b60006020820190506108ad6000830184610837565b92915050565b60006108be826108c5565b9050919050565b600073ffffffffffffffffffffffffffffffffffffffff82169050919050565b600062ffffff82169050919050565b6000819050919050565b600061090982610910565b9050919050565b600061091b826108c5565b9050919050565b61092b816108b3565b811461093657600080fd5b50565b610942816108f4565b811461094d57600080fd5b5056fea264697066735822122092ae5068047ca49fe08a6d4924ffb6047b56202493a0dbb23d4200b1e949f76664736f6c63430007060033",
  "linkReferences": {},
  "deployedLinkReferences": {}
}